{
  "contractName": "ArrayTest",
  "abi": [
    {
      "inputs": [
        {
          "name": "names",
          "type": "string"
        }
      ],
      "payable": false,
      "stateMutability": "nonpayable",
      "type": "constructor"
    },
    {
      "constant": true,
      "inputs": [],
      "name": "getValue",
      "outputs": [
        {
          "name": "value",
          "type": "bytes1[3]"
        }
      ],
      "payable": false,
      "stateMutability": "view",
      "type": "function"
    },
    {
      "constant": true,
      "inputs": [],
      "name": "getName",
      "outputs": [
        {
          "name": "",
          "type": "string"
        }
      ],
      "payable": false,
      "stateMutability": "view",
      "type": "function"
    },
    {
      "constant": false,
      "inputs": [],
      "name": "getLastWinner",
      "outputs": [
        {
          "name": "",
          "type": "string"
        }
      ],
      "payable": false,
      "stateMutability": "nonpayable",
      "type": "function"
    }
  ],
  "bytecode": "0x608060405260606040519081016040528060017f0100000000000000000000000000000000000000000000000000000000000000027effffffffffffffffffffffffffffffffffffffffffffffffffffffffffffff19167effffffffffffffffffffffffffffffffffffffffffffffffffffffffffffff1916815260200160027f0100000000000000000000000000000000000000000000000000000000000000027effffffffffffffffffffffffffffffffffffffffffffffffffffffffffffff1916815260200160ff7f0100000000000000000000000000000000000000000000000000000000000000027effffffffffffffffffffffffffffffffffffffffffffffffffffffffffffff191681525060009060036101219291906101d9565b5060046040519080825280602002602001820160405280156101525781602001602082028038833980820191505090505b5060019080519060200190610168929190610293565b5060026005908054600181600116156101000203166002900461018c92919061035a565b5034801561019957600080fd5b50604051610a2d380380610a2d8339810180604052810190808051820192919050505080600690805190602001906101d29291906103e1565b50506104b6565b826003601f016020900481019282156102825791602002820160005b8382111561025357835183826101000a81548160ff02191690837f01000000000000000000000000000000000000000000000000000000000000009004021790555092602001926001016020816000010492830192600103026101f5565b80156102805782816101000a81549060ff0219169055600101602081600001049283019260010302610253565b505b50905061028f9190610461565b5090565b82805482825590600052602060002090601f016020900481019282156103495791602002820160005b8382111561031a57835183826101000a81548160ff02191690837f01000000000000000000000000000000000000000000000000000000000000009004021790555092602001926001016020816000010492830192600103026102bc565b80156103475782816101000a81549060ff021916905560010160208160000104928301926001030261031a565b505b5090506103569190610461565b5090565b828054600181600116156101000203166002900490600052602060002090601f016020900481019282601f1061039357805485556103d0565b828001600101855582156103d057600052602060002091601f016020900482015b828111156103cf5782548255916001019190600101906103b4565b5b5090506103dd9190610491565b5090565b828054600181600116156101000203166002900490600052602060002090601f016020900481019282601f1061042257805160ff1916838001178555610450565b82800160010185558215610450579182015b8281111561044f578251825591602001919060010190610434565b5b50905061045d9190610491565b5090565b61048e91905b8082111561048a57600081816101000a81549060ff021916905550600101610467565b5090565b90565b6104b391905b808211156104af576000816000905550600101610497565b5090565b90565b610568806104c56000396000f300608060405260043610610057576000357c0100000000000000000000000000000000000000000000000000000000900463ffffffff16806317d7de7c1461005c57806320965255146100ec578063f88649a11461013f575b600080fd5b34801561006857600080fd5b506100716101cf565b6040518080602001828103825283818151815260200191508051906020019080838360005b838110156100b1578082015181840152602081019050610096565b50505050905090810190601f1680156100de5780820380516001836020036101000a031916815260200191505b509250505060405180910390f35b3480156100f857600080fd5b50610101610277565b6040518082600360200280838360005b8381101561012c578082015181840152602081019050610111565b5050505090500191505060405180910390f35b34801561014b57600080fd5b50610154610326565b6040518080602001828103825283818151815260200191508051906020019080838360005b83811015610194578082015181840152602081019050610179565b50505050905090810190601f1680156101c15780820380516001836020036101000a031916815260200191505b509250505060405180910390f35b6060600060069050808054600181600116156101000203166002900480601f01602080910402602001604051908101604052809291908181526020018280546001816001161561010002031660029004801561026c5780601f106102415761010080835404028352916020019161026c565b820191906000526020600020905b81548152906001019060200180831161024f57829003601f168201915b505050505091505090565b61027f610519565b600060038060200260405190810160405280929190826003801561031c576020028201916000905b82829054906101000a90047f0100000000000000000000000000000000000000000000000000000000000000027effffffffffffffffffffffffffffffffffffffffffffffffffffffffffffff1916815260200190600101906020826000010492830192600103820291508084116102a75790505b5050505050905090565b606060006060806060600060068054600181600116156101000203166002900480601f0160208091040260200160405190810160405280929190818152602001828054600181600116156101000203166002900480156103c75780601f1061039c576101008083540402835291602001916103c7565b820191906000526020600020905b8154815290600101906020018083116103aa57829003601f168201915b50505050509350600084511415610415576040805190810160405280600381526020017f2a2a2a00000000000000000000000000000000000000000000000000000000008152509550610511565b60036040519080825280601f01601f1916602001820160405280156104495781602001602082028038833980820191505090505b509250829150600090505b6003811080156104645750835181105b1561050d57838181518110151561047757fe5b9060200101517f010000000000000000000000000000000000000000000000000000000000000090047f01000000000000000000000000000000000000000000000000000000000000000282828151811015156104d057fe5b9060200101907effffffffffffffffffffffffffffffffffffffffffffffffffffffffffffff1916908160001a9053508080600101915050610454565b8195505b505050505090565b6060604051908101604052806003906020820280388339808201915050905050905600a165627a7a72305820a49bd4f964588777df944fe317b93617118c2a087cd5218bec02db46acd7281a0029",
  "source": "pragma solidity ^0.4.22;\n\n\ncontract ArrayTest {\n\n  byte[3] staticArrayStorage=[byte(1),2,255];\n  byte[] dynamic_Array=new byte[](4);\n  bytes aray;\n  int32[] dynamicArray;\n  bool[] boolArray;\n  string data=string(aray);\n  string name;\n  constructor(string names) public{\n     name=names;\n  }\n  function getValue() public view returns(byte[3] value){\n     value= staticArrayStorage;\n    \n  }\n  function getName() public view returns(string) {\n    string storage message=name;\n    return message;\n  }\n  function getLastWinner() returns(string){\n    bytes  ArrayName;\n    bytes memory nameBytes=bytes(name);\n    if(nameBytes.length ==0){\n    return \"***\";\n    }\n    else{\n    string memory s=new string(3);\n    bytes memory bytess=bytes(s);\n\n    for(uint i=0;(i<3) && (i<nameBytes.length);i++)\n    {\n         bytess[i]=nameBytes[i];\n    }\n    return string(bytess);\n    }\n    \n  }\n}\n",
  "sourcePath": "C:\\Users\\pc\\Desktop\\Zakaria\\Udemy-Project\\app-udemy\\FirstDappsApplication\\contracts\\ArrayTest.sol",
  "compiler": {
    "name": "solc",
    "version": "0.4.24+commit.e67f0147.Emscripten.clang"
  },
  "schemaVersion": "2.0.1",
  "updatedAt": "2018-10-15T12:33:26.912Z"
}