{
  "contractName": "CalculatorV2",
  "abi": [
    {
      "inputs": [
        {
          "name": "number",
          "type": "uint256"
        }
      ],
      "payable": false,
      "stateMutability": "nonpayable",
      "type": "constructor"
    },
    {
      "anonymous": false,
      "inputs": [
        {
          "indexed": false,
          "name": "owner",
          "type": "address"
        },
        {
          "indexed": false,
          "name": "n",
          "type": "uint256"
        }
      ],
      "name": "numberAdded",
      "type": "event"
    },
    {
      "anonymous": false,
      "inputs": [
        {
          "indexed": false,
          "name": "owner",
          "type": "address"
        },
        {
          "indexed": false,
          "name": "n",
          "type": "uint256"
        }
      ],
      "name": "numberSubstracted",
      "type": "event"
    },
    {
      "anonymous": false,
      "inputs": [
        {
          "indexed": false,
          "name": "owner",
          "type": "address"
        },
        {
          "indexed": false,
          "name": "n",
          "type": "uint256"
        }
      ],
      "name": "numberMultiplied",
      "type": "event"
    },
    {
      "anonymous": false,
      "inputs": [
        {
          "indexed": false,
          "name": "owner",
          "type": "address"
        },
        {
          "indexed": false,
          "name": "n",
          "type": "uint256"
        }
      ],
      "name": "numberDivided",
      "type": "event"
    },
    {
      "constant": true,
      "inputs": [],
      "name": "getNumber",
      "outputs": [
        {
          "name": "",
          "type": "uint256"
        }
      ],
      "payable": false,
      "stateMutability": "view",
      "type": "function"
    },
    {
      "constant": false,
      "inputs": [
        {
          "name": "number",
          "type": "uint256"
        }
      ],
      "name": "AddToStateNumber",
      "outputs": [
        {
          "name": "",
          "type": "uint256"
        }
      ],
      "payable": false,
      "stateMutability": "nonpayable",
      "type": "function"
    },
    {
      "constant": false,
      "inputs": [
        {
          "name": "number",
          "type": "uint256"
        }
      ],
      "name": "substractFromStateNumber",
      "outputs": [
        {
          "name": "",
          "type": "uint256"
        }
      ],
      "payable": false,
      "stateMutability": "nonpayable",
      "type": "function"
    },
    {
      "constant": false,
      "inputs": [
        {
          "name": "number",
          "type": "uint256"
        }
      ],
      "name": "multiplyWithNumber",
      "outputs": [
        {
          "name": "",
          "type": "uint256"
        }
      ],
      "payable": false,
      "stateMutability": "nonpayable",
      "type": "function"
    },
    {
      "constant": false,
      "inputs": [
        {
          "name": "number",
          "type": "uint256"
        }
      ],
      "name": "divideNumberBy",
      "outputs": [
        {
          "name": "",
          "type": "uint256"
        }
      ],
      "payable": false,
      "stateMutability": "nonpayable",
      "type": "function"
    }
  ],
  "bytecode": "0x608060405234801561001057600080fd5b506040516020806104418339810180604052810190808051906020019092919050505080600081905550506103f78061004a6000396000f30060806040526004361061006d576000357c0100000000000000000000000000000000000000000000000000000000900463ffffffff16806303ba140f14610072578063235778a2146100b3578063b4679b06146100f4578063f0e4498b14610135578063f2c9ecd814610176575b600080fd5b34801561007e57600080fd5b5061009d600480360381019080803590602001909291905050506101a1565b6040518082815260200191505060405180910390f35b3480156100bf57600080fd5b506100de60048036038101908080359060200190929190505050610227565b6040518082815260200191505060405180910390f35b34801561010057600080fd5b5061011f600480360381019080803590602001909291905050506102b6565b6040518082815260200191505060405180910390f35b34801561014157600080fd5b506101606004803603810190808035906020019092919050505061033c565b6040518082815260200191505060405180910390f35b34801561018257600080fd5b5061018b6103c2565b6040518082815260200191505060405180910390f35b60008160008082825401925050819055507fe1a305bc8a199830ab266b24a068d4b6e57a944e16cc05fa98c0a7a8b5547f373383604051808373ffffffffffffffffffffffffffffffffffffffff1673ffffffffffffffffffffffffffffffffffffffff1681526020018281526020019250505060405180910390a16000549050919050565b60008160008082825481151561023957fe5b04925050819055507f4fb7e7fed5156209179972143691703fe7a5a04a4862c427d9f27de6845dc18a3383604051808373ffffffffffffffffffffffffffffffffffffffff1673ffffffffffffffffffffffffffffffffffffffff1681526020018281526020019250505060405180910390a16000549050919050565b60008160008082825402925050819055507ff3a84a3928859bf11988b92d22526cbdf1da76cda9a25517b2a59335daef1aa03383604051808373ffffffffffffffffffffffffffffffffffffffff1673ffffffffffffffffffffffffffffffffffffffff1681526020018281526020019250505060405180910390a16000549050919050565b60008160008082825403925050819055507fc7f2675d8ff3abd4510a65d8b2180e3ac3cac4d3e1ab163dea3fb6e91328cb1a3383604051808373ffffffffffffffffffffffffffffffffffffffff1673ffffffffffffffffffffffffffffffffffffffff1681526020018281526020019250505060405180910390a16000549050919050565b600080549050905600a165627a7a72305820e739a4dc4aa04e4b26a7f23b1ba21cecad685dcaf2a63e14301c0a636b14af5d0029",
  "source": "pragma solidity ^0.4.22;\r\n\r\n\r\ncontract CalculatorV2 {\r\n  uint stateNumber;\r\n  event numberAdded(address owner,uint n);\r\n  event numberSubstracted(address owner,uint n);\r\n  event numberMultiplied(address owner,uint n);\r\n  event numberDivided(address owner,uint n);\r\n  constructor(uint number) public {\r\n    stateNumber=number;\r\n  }\r\n  function getNumber() public view returns (uint)\r\n  {\r\n    return stateNumber;\r\n  }\r\n  function AddToStateNumber(uint number) public returns (uint) \r\n  {\r\n       stateNumber+=number;\r\n       emit numberAdded(msg.sender,number);\r\n       return stateNumber;\r\n  }\r\n  function substractFromStateNumber(uint number) public returns (uint)\r\n  {\r\n    stateNumber -= number;\r\n    emit numberSubstracted(msg.sender,number);\r\n    return stateNumber;\r\n  }\r\n  function multiplyWithNumber(uint number) public returns (uint)\r\n  {  \r\n     stateNumber *= number;\r\n     emit numberMultiplied(msg.sender,number);\r\n      return stateNumber;\r\n  }\r\n   function divideNumberBy(uint number) public returns (uint)\r\n  {  \r\n     stateNumber /= number;\r\n     emit numberDivided(msg.sender,number);\r\n      return stateNumber;\r\n  }\r\n\r\n}\r\n",
  "sourcePath": "C:\\Users\\pc\\Desktop\\Zakaria\\Udemy-Project\\app-udemy\\FirstDappsApplication\\contracts\\CalculatorV2.sol",
  "compiler": {
    "name": "solc",
    "version": "0.4.24+commit.e67f0147.Emscripten.clang"
  },
  "schemaVersion": "2.0.1",
  "updatedAt": "2018-10-12T03:52:47.062Z"
}