{
  "contractName": "Calculator",
  "abi": [
    {
      "inputs": [
        {
          "name": "number",
          "type": "uint256"
        }
      ],
      "payable": false,
      "stateMutability": "nonpayable",
      "type": "constructor"
    },
    {
      "constant": true,
      "inputs": [],
      "name": "getNumber",
      "outputs": [
        {
          "name": "",
          "type": "uint256"
        }
      ],
      "payable": false,
      "stateMutability": "view",
      "type": "function"
    },
    {
      "constant": false,
      "inputs": [
        {
          "name": "number",
          "type": "uint256"
        }
      ],
      "name": "AddToStateNumber",
      "outputs": [
        {
          "name": "",
          "type": "uint256"
        }
      ],
      "payable": false,
      "stateMutability": "nonpayable",
      "type": "function"
    },
    {
      "constant": false,
      "inputs": [
        {
          "name": "number",
          "type": "uint256"
        }
      ],
      "name": "substractFromStateNumber",
      "outputs": [
        {
          "name": "",
          "type": "uint256"
        }
      ],
      "payable": false,
      "stateMutability": "nonpayable",
      "type": "function"
    },
    {
      "constant": false,
      "inputs": [
        {
          "name": "number",
          "type": "uint256"
        }
      ],
      "name": "multiplyWithNumber",
      "outputs": [
        {
          "name": "",
          "type": "uint256"
        }
      ],
      "payable": false,
      "stateMutability": "nonpayable",
      "type": "function"
    },
    {
      "constant": false,
      "inputs": [
        {
          "name": "number",
          "type": "uint256"
        }
      ],
      "name": "divideNumberBy",
      "outputs": [
        {
          "name": "",
          "type": "uint256"
        }
      ],
      "payable": false,
      "stateMutability": "nonpayable",
      "type": "function"
    }
  ],
  "bytecode": "0x608060405234801561001057600080fd5b5060405160208061029583398101806040528101908080519060200190929190505050806000819055505061024b8061004a6000396000f30060806040526004361061006d576000357c0100000000000000000000000000000000000000000000000000000000900463ffffffff16806303ba140f14610072578063235778a2146100b3578063b4679b06146100f4578063f0e4498b14610135578063f2c9ecd814610176575b600080fd5b34801561007e57600080fd5b5061009d600480360381019080803590602001909291905050506101a1565b6040518082815260200191505060405180910390f35b3480156100bf57600080fd5b506100de600480360381019080803590602001909291905050506101bc565b6040518082815260200191505060405180910390f35b34801561010057600080fd5b5061011f600480360381019080803590602001909291905050506101e0565b6040518082815260200191505060405180910390f35b34801561014157600080fd5b50610160600480360381019080803590602001909291905050506101fb565b6040518082815260200191505060405180910390f35b34801561018257600080fd5b5061018b610216565b6040518082815260200191505060405180910390f35b60008160008082825401925050819055506000549050919050565b6000816000808282548115156101ce57fe5b04925050819055506000549050919050565b60008160008082825402925050819055506000549050919050565b60008160008082825403925050819055506000549050919050565b600080549050905600a165627a7a723058204391d33f2f7cdb63db958358bd5759007e91c3b040ebe5f6de33120996e8d2ac0029",
  "source": "pragma solidity ^0.4.22;\n\n\ncontract Calculator {\n  uint stateNumber;\n  constructor(uint number) public {\n    stateNumber=number;\n  }\n  function getNumber() public view returns (uint)\n  {\n    return stateNumber;\n  }\n  function AddToStateNumber(uint number) public returns (uint) \n  {\n       stateNumber+=number;\n       return stateNumber;\n  }\n  function substractFromStateNumber(uint number) public returns (uint)\n  {\n    stateNumber -= number;\n    return stateNumber;\n  }\n  function multiplyWithNumber(uint number) public returns (uint)\n  {  \n     stateNumber *= number;\n      return stateNumber;\n  }\n   function divideNumberBy(uint number) public returns (uint)\n  {  \n     stateNumber /= number;\n      return stateNumber;\n  }\n\n}\n",
  "sourcePath": "C:\\Users\\pc\\Desktop\\Zakaria\\Udemy-Project\\app-udemy\\FirstDappsApplication\\contracts\\Calculator.sol",
  "compiler": {
    "name": "solc",
    "version": "0.4.24+commit.e67f0147.Emscripten.clang"
  },
  "schemaVersion": "2.0.1",
  "updatedAt": "2018-10-11T20:47:10.148Z"
}