{
  "contractName": "MappingExample",
  "abi": [
    {
      "inputs": [],
      "payable": false,
      "stateMutability": "nonpayable",
      "type": "constructor"
    },
    {
      "constant": false,
      "inputs": [
        {
          "name": "country",
          "type": "string"
        },
        {
          "name": "capital",
          "type": "string"
        }
      ],
      "name": "addCapitals",
      "outputs": [],
      "payable": false,
      "stateMutability": "nonpayable",
      "type": "function"
    },
    {
      "constant": false,
      "inputs": [
        {
          "name": "country",
          "type": "string"
        }
      ],
      "name": "removeCapitals",
      "outputs": [],
      "payable": false,
      "stateMutability": "nonpayable",
      "type": "function"
    },
    {
      "constant": false,
      "inputs": [
        {
          "name": "country",
          "type": "string"
        }
      ],
      "name": "getCapitals",
      "outputs": [
        {
          "name": "capital",
          "type": "string"
        }
      ],
      "payable": false,
      "stateMutability": "nonpayable",
      "type": "function"
    }
  ],
  "bytecode": "0x608060405234801561001057600080fd5b5033600160006101000a81548173ffffffffffffffffffffffffffffffffffffffff021916908373ffffffffffffffffffffffffffffffffffffffff16021790555061068e806100616000396000f300608060405260043610610057576000357c0100000000000000000000000000000000000000000000000000000000900463ffffffff16806317d5d0251461005c57806356e81f971461010b5780638121b34014610174575b600080fd5b34801561006857600080fd5b50610109600480360381019080803590602001908201803590602001908080601f0160208091040260200160405190810160405280939291908181526020018383808284378201915050505050509192919290803590602001908201803590602001908080601f0160208091040260200160405190810160405280939291908181526020018383808284378201915050505050509192919290505050610256565b005b34801561011757600080fd5b50610172600480360381019080803590602001908201803590602001908080601f0160208091040260200160405190810160405280939291908181526020018383808284378201915050505050509192919290505050610336565b005b34801561018057600080fd5b506101db600480360381019080803590602001908201803590602001908080601f016020809104026020016040519081016040528093929190818152602001838380828437820191505050505050919291929050505061040c565b6040518080602001828103825283818151815260200191508051906020019080838360005b8381101561021b578082015181840152602081019050610200565b50505050905090810190601f1680156102485780820380516001836020036101000a031916815260200191505b509250505060405180910390f35b600160009054906101000a900473ffffffffffffffffffffffffffffffffffffffff1673ffffffffffffffffffffffffffffffffffffffff163373ffffffffffffffffffffffffffffffffffffffff161415156102b257600080fd5b806000836040518082805190602001908083835b6020831015156102eb57805182526020820191506020810190506020830392506102c6565b6001836020036101000a03801982511681845116808217855250505050505090500191505090815260200160405180910390209080519060200190610331929190610575565b505050565b600160009054906101000a900473ffffffffffffffffffffffffffffffffffffffff1673ffffffffffffffffffffffffffffffffffffffff163373ffffffffffffffffffffffffffffffffffffffff1614151561039257600080fd5b6000816040518082805190602001908083835b6020831015156103ca57805182526020820191506020810190506020830392506103a5565b6001836020036101000a0380198251168184511680821785525050505050509050019150509081526020016040518091039020600061040991906105f5565b50565b6060600160009054906101000a900473ffffffffffffffffffffffffffffffffffffffff1673ffffffffffffffffffffffffffffffffffffffff163373ffffffffffffffffffffffffffffffffffffffff1614151561046a57600080fd5b6000826040518082805190602001908083835b6020831015156104a2578051825260208201915060208101905060208303925061047d565b6001836020036101000a03801982511681845116808217855250505050505090500191505090815260200160405180910390208054600181600116156101000203166002900480601f0160208091040260200160405190810160405280929190818152602001828054600181600116156101000203166002900480156105695780601f1061053e57610100808354040283529160200191610569565b820191906000526020600020905b81548152906001019060200180831161054c57829003601f168201915b50505050509050919050565b828054600181600116156101000203166002900490600052602060002090601f016020900481019282601f106105b657805160ff19168380011785556105e4565b828001600101855582156105e4579182015b828111156105e35782518255916020019190600101906105c8565b5b5090506105f1919061063d565b5090565b50805460018160011615610100020316600290046000825580601f1061061b575061063a565b601f016020900490600052602060002090810190610639919061063d565b5b50565b61065f91905b8082111561065b576000816000905550600101610643565b5090565b905600a165627a7a723058208d36a11ad1e1f77159f5fddca8e3a1f61200422f1bbd2e9bd4f1ae626729914b0029",
  "source": "pragma solidity ^0.4.22;\n\n\ncontract MappingExample {\n  mapping (string => string) capitals;\n  address owner;\n  modifier onlyOwner {\n    require(msg.sender== owner);_;\n  }\n  constructor()  {\n    owner=msg.sender;\n  }\n  function addCapitals  (string country,string capital) public onlyOwner\n  {\n    capitals[country]=capital;\n  }\n  function removeCapitals (string country) public onlyOwner{\n    delete (capitals[country]);\n  }\n  function getCapitals(string country) public onlyOwner returns(string capital){\n    capital= capitals[country];\n  }\n}\n",
  "sourcePath": "C:\\Users\\pc\\Desktop\\Zakaria\\Udemy-Project\\app-udemy\\FirstDappsApplication\\contracts\\MappingExample.sol",
  "compiler": {
    "name": "solc",
    "version": "0.4.24+commit.e67f0147.Emscripten.clang"
  },
  "schemaVersion": "2.0.1",
  "updatedAt": "2018-10-15T12:33:28.561Z"
}