{
  "contractName": "MappingExample",
  "abi": [
    {
      "inputs": [],
      "payable": false,
      "stateMutability": "nonpayable",
      "type": "constructor"
    },
    {
      "constant": false,
      "inputs": [
        {
          "name": "country",
          "type": "string"
        },
        {
          "name": "capital",
          "type": "string"
        }
      ],
      "name": "addCapitals",
      "outputs": [],
      "payable": false,
      "stateMutability": "nonpayable",
      "type": "function"
    },
    {
      "constant": false,
      "inputs": [
        {
          "name": "country",
          "type": "string"
        }
      ],
      "name": "removeCapitals",
      "outputs": [],
      "payable": false,
      "stateMutability": "nonpayable",
      "type": "function"
    },
    {
      "constant": false,
      "inputs": [
        {
          "name": "country",
          "type": "string"
        }
      ],
      "name": "getCapitals",
      "outputs": [
        {
          "name": "capital",
          "type": "string"
        }
      ],
      "payable": false,
      "stateMutability": "nonpayable",
      "type": "function"
    },
    {
      "constant": false,
      "inputs": [
        {
          "name": "arg",
          "type": "uint8"
        }
      ],
      "name": "getContinent",
      "outputs": [
        {
          "name": "",
          "type": "string"
        }
      ],
      "payable": false,
      "stateMutability": "nonpayable",
      "type": "function"
    },
    {
      "constant": false,
      "inputs": [
        {
          "name": "nm",
          "type": "bytes32"
        },
        {
          "name": "cpt",
          "type": "string"
        },
        {
          "name": "ct",
          "type": "uint8"
        }
      ],
      "name": "addAfricanContinent",
      "outputs": [
        {
          "name": "",
          "type": "bool"
        }
      ],
      "payable": false,
      "stateMutability": "nonpayable",
      "type": "function"
    },
    {
      "constant": false,
      "inputs": [
        {
          "name": "name",
          "type": "bytes32"
        }
      ],
      "name": "getAfricanContinentByName",
      "outputs": [
        {
          "name": "",
          "type": "bytes32"
        },
        {
          "name": "",
          "type": "string"
        },
        {
          "name": "",
          "type": "uint8"
        }
      ],
      "payable": false,
      "stateMutability": "nonpayable",
      "type": "function"
    }
  ],
  "bytecode": "0x608060405234801561001057600080fd5b5033600160006101000a81548173ffffffffffffffffffffffffffffffffffffffff021916908373ffffffffffffffffffffffffffffffffffffffff160217905550610e69806100616000396000f300608060405260043610610078576000357c0100000000000000000000000000000000000000000000000000000000900463ffffffff168063155371bd1461007d57806317d5d0251461012657806356e81f97146101d55780638121b3401461023e578063bec7abac14610320578063f90e4ce1146103e6575b600080fd5b34801561008957600080fd5b506100ab600480360381019080803560ff169060200190929190505050610482565b6040518080602001828103825283818151815260200191508051906020019080838360005b838110156100eb5780820151818401526020810190506100d0565b50505050905090810190601f1680156101185780820380516001836020036101000a031916815260200191505b509250505060405180910390f35b34801561013257600080fd5b506101d3600480360381019080803590602001908201803590602001908080601f0160208091040260200160405190810160405280939291908181526020018383808284378201915050505050509192919290803590602001908201803590602001908080601f0160208091040260200160405190810160405280939291908181526020018383808284378201915050505050509192919290505050610679565b005b3480156101e157600080fd5b5061023c600480360381019080803590602001908201803590602001908080601f0160208091040260200160405190810160405280939291908181526020018383808284378201915050505050509192919290505050610759565b005b34801561024a57600080fd5b506102a5600480360381019080803590602001908201803590602001908080601f016020809104026020016040519081016040528093929190818152602001838380828437820191505050505050919291929050505061082f565b6040518080602001828103825283818151815260200191508051906020019080838360005b838110156102e55780820151818401526020810190506102ca565b50505050905090810190601f1680156103125780820380516001836020036101000a031916815260200191505b509250505060405180910390f35b34801561032c57600080fd5b5061034f6004803603810190808035600019169060200190929190505050610998565b604051808460001916600019168152602001806020018360ff1660ff168152602001828103825284818151815260200191508051906020019080838360005b838110156103a957808201518184015260208101905061038e565b50505050905090810190601f1680156103d65780820380516001836020036101000a031916815260200191505b5094505050505060405180910390f35b3480156103f257600080fd5b506104686004803603810190808035600019169060200190929190803590602001908201803590602001908080601f0160208091040260200160405190810160405280939291908181526020018383808284378201915050505050509192919290803560ff169060200190929190505050610b83565b604051808215151515815260200191505060405180910390f35b6060600160009054906101000a900473ffffffffffffffffffffffffffffffffffffffff1673ffffffffffffffffffffffffffffffffffffffff163373ffffffffffffffffffffffffffffffffffffffff161415156104e057600080fd5b600060038111156104ed57fe5b60ff168260ff161415610537576040805190810160405280600681526020017f61667269636100000000000000000000000000000000000000000000000000008152509050610674565b6001600381111561054457fe5b60ff168260ff16141561058e576040805190810160405280600681526020017f4575726f706500000000000000000000000000000000000000000000000000008152509050610674565b6002600381111561059b57fe5b60ff168260ff1614156105e5576040805190810160405280600481526020017f41736961000000000000000000000000000000000000000000000000000000008152509050610674565b6003808111156105f157fe5b60ff168260ff16141561063b576040805190810160405280600781526020017f416d6572696361000000000000000000000000000000000000000000000000008152509050610674565b6040805190810160405280600e81526020017f646f6573206e6f7420657869737400000000000000000000000000000000000081525090505b919050565b600160009054906101000a900473ffffffffffffffffffffffffffffffffffffffff1673ffffffffffffffffffffffffffffffffffffffff163373ffffffffffffffffffffffffffffffffffffffff161415156106d557600080fd5b806000836040518082805190602001908083835b60208310151561070e57805182526020820191506020810190506020830392506106e9565b6001836020036101000a03801982511681845116808217855250505050505090500191505090815260200160405180910390209080519060200190610754929190610cd0565b505050565b600160009054906101000a900473ffffffffffffffffffffffffffffffffffffffff1673ffffffffffffffffffffffffffffffffffffffff163373ffffffffffffffffffffffffffffffffffffffff161415156107b557600080fd5b6000816040518082805190602001908083835b6020831015156107ed57805182526020820191506020810190506020830392506107c8565b6001836020036101000a0380198251168184511680821785525050505050509050019150509081526020016040518091039020600061082c9190610d50565b50565b6060600160009054906101000a900473ffffffffffffffffffffffffffffffffffffffff1673ffffffffffffffffffffffffffffffffffffffff163373ffffffffffffffffffffffffffffffffffffffff1614151561088d57600080fd5b6000826040518082805190602001908083835b6020831015156108c557805182526020820191506020810190506020830392506108a0565b6001836020036101000a03801982511681845116808217855250505050505090500191505090815260200160405180910390208054600181600116156101000203166002900480601f01602080910402602001604051908101604052809291908181526020018280546001816001161561010002031660029004801561098c5780601f106109615761010080835404028352916020019161098c565b820191906000526020600020905b81548152906001019060200180831161096f57829003601f168201915b50505050509050919050565b60006060600080600160009054906101000a900473ffffffffffffffffffffffffffffffffffffffff1673ffffffffffffffffffffffffffffffffffffffff163373ffffffffffffffffffffffffffffffffffffffff161415156109fb57600080fd5b600090505b6002805490508160ff161015610b7a57846000191660028260ff16815481101515610a2757fe5b906000526020600020906003020160000154600019161415610b6d5760028160ff16815481101515610a5557fe5b90600052602060002090600302016000015460028260ff16815481101515610a7957fe5b906000526020600020906003020160010160028360ff16815481101515610a9c57fe5b906000526020600020906003020160020160009054906101000a900460ff166003811115610ac657fe5b818054600181600116156101000203166002900480601f016020809104026020016040519081016040528092919081815260200182805460018160011615610100020316600290048015610b5b5780601f10610b3057610100808354040283529160200191610b5b565b820191906000526020600020905b815481529060010190602001808311610b3e57829003601f168201915b50505050509150935093509350610b7b565b8080600101915050610a00565b5b509193909250565b6000600160009054906101000a900473ffffffffffffffffffffffffffffffffffffffff1673ffffffffffffffffffffffffffffffffffffffff163373ffffffffffffffffffffffffffffffffffffffff16141515610be157600080fd5b60006003811115610bee57fe5b60ff168260ff16141515610c055760009050610cc9565b6002606060405190810160405280866000191681526020018581526020018460ff166003811115610c3257fe5b6003811115610c3d57fe5b81525090806001815401808255809150509060018203906000526020600020906003020160009091929091909150600082015181600001906000191690556020820151816001019080519060200190610c97929190610d98565b5060408201518160020160006101000a81548160ff02191690836003811115610cbc57fe5b0217905550505050600190505b9392505050565b828054600181600116156101000203166002900490600052602060002090601f016020900481019282601f10610d1157805160ff1916838001178555610d3f565b82800160010185558215610d3f579182015b82811115610d3e578251825591602001919060010190610d23565b5b509050610d4c9190610e18565b5090565b50805460018160011615610100020316600290046000825580601f10610d765750610d95565b601f016020900490600052602060002090810190610d949190610e18565b5b50565b828054600181600116156101000203166002900490600052602060002090601f016020900481019282601f10610dd957805160ff1916838001178555610e07565b82800160010185558215610e07579182015b82811115610e06578251825591602001919060010190610deb565b5b509050610e149190610e18565b5090565b610e3a91905b80821115610e36576000816000905550600101610e1e565b5090565b905600a165627a7a72305820ce2d3cffaa01851737491a501d8675474ab2567d4c410343fd48c06f1d48c53b0029",
  "source": "pragma solidity ^0.4.22;\n\n\ncontract MappingExample {\n   enum continent {Africa,Europe,Asia,America}\n  mapping (string => string) capitals;\n  struct countries {\n    bytes32 name;\n    string capital;\n    continent cont;\n  }\n  address owner;\n  modifier onlyOwner {\n    require(msg.sender== owner);_;\n  }\n  countries[] AffricanCountries;\n  constructor()  {\n    owner=msg.sender;\n  }\n  function addCapitals  (string country,string capital) public onlyOwner\n  {\n    capitals[country]=capital;\n  }\n  function removeCapitals (string country) public onlyOwner{\n    delete (capitals[country]);\n  }\n  function getCapitals(string country) public onlyOwner returns(string capital){\n    capital= capitals[country];\n  }\n  function getContinent(uint8 arg) public onlyOwner returns(string){\n    if(arg==uint8(continent.Africa)) return \"africa\";\n    else if(arg==uint8(continent.Europe)) return \"Europe\";\n    else if(arg==uint8(continent.Asia)) return \"Asia\";\n    else if(arg==uint8(continent.America)) return \"America\";\n    else return \"does not exist\";\n\n\n  }\n  function addAfricanContinent(bytes32 nm,string cpt,uint8 ct) public onlyOwner returns (bool){\n    if (ct !=uint8(continent.Africa)) return false;\n    AffricanCountries.push(countries(nm,cpt,continent(ct))); return true;\n\n  }\n  function getAfricanContinentByName(bytes32 name) public onlyOwner returns(bytes32,string,uint8){\n    for(uint8 i=0;i<AffricanCountries.length;i++)\n    {\n      if(AffricanCountries[i].name==name) {\n      return(AffricanCountries[i].name,AffricanCountries[i].capital,uint8(AffricanCountries[i].cont));\n      }\n    }\n  }\n}\n",
  "sourcePath": "C:\\Users\\pc\\Desktop\\Zakaria\\Udemy-Project\\app-udemy\\FirstDappsApplication\\contracts\\MappingExample.sol",
  "compiler": {
    "name": "solc",
    "version": "0.4.24+commit.e67f0147.Emscripten.clang"
  },
  "schemaVersion": "2.0.1",
  "updatedAt": "2018-10-15T14:19:11.802Z"
}