{
  "contractName": "MultiNumberBettingV4",
  "abi": [
    {
      "inputs": [
        {
          "name": "number1",
          "type": "uint8"
        },
        {
          "name": "number2",
          "type": "uint8"
        },
        {
          "name": "number3",
          "type": "uint8"
        }
      ],
      "payable": false,
      "stateMutability": "nonpayable",
      "type": "constructor"
    },
    {
      "constant": false,
      "inputs": [
        {
          "name": "num",
          "type": "uint8"
        },
        {
          "name": "nameguess",
          "type": "string"
        }
      ],
      "name": "guess",
      "outputs": [
        {
          "name": "",
          "type": "bool"
        }
      ],
      "payable": false,
      "stateMutability": "nonpayable",
      "type": "function"
    },
    {
      "constant": true,
      "inputs": [],
      "name": "totalGuesses",
      "outputs": [
        {
          "name": "",
          "type": "uint256"
        }
      ],
      "payable": false,
      "stateMutability": "view",
      "type": "function"
    },
    {
      "constant": false,
      "inputs": [],
      "name": "getLastWinnerInfo",
      "outputs": [
        {
          "name": "winnerAddress",
          "type": "address"
        },
        {
          "name": "name",
          "type": "string"
        },
        {
          "name": "guess",
          "type": "uint256"
        },
        {
          "name": "guessedAt",
          "type": "uint256"
        }
      ],
      "payable": false,
      "stateMutability": "nonpayable",
      "type": "function"
    }
  ],
  "bytecode": "0x608060405234801561001057600080fd5b506040516060806105fd8339810180604052810190808051906020019092919080519060200190929190805190602001909291905050506060604051908101604052808460ff1660ff1681526020018360ff1660ff1681526020018260ff1660ff16815250600090600361008592919061008e565b50505050610165565b82805482825590600052602060002090601f016020900481019282156101245791602002820160005b838211156100f557835183826101000a81548160ff021916908360ff16021790555092602001926001016020816000010492830192600103026100b7565b80156101225782816101000a81549060ff02191690556001016020816000010492830192600103026100f5565b505b5090506101319190610135565b5090565b61016291905b8082111561015e57600081816101000a81549060ff02191690555060010161013b565b5090565b90565b610489806101746000396000f300608060405260043610610057576000357c0100000000000000000000000000000000000000000000000000000000900463ffffffff1680638ef282491461005c57806395583f7114610087578063ee040eb914610115575b600080fd5b34801561006857600080fd5b506100716101e6565b6040518082815260200191505060405180910390f35b34801561009357600080fd5b506100fb600480360381019080803560ff169060200190929190803590602001908201803590602001908080601f01602080910402602001604051908101604052809392919081815260200183838082843782019150505050505091929192905050506101f4565b604051808215151515815260200191505060405180910390f35b34801561012157600080fd5b5061012a6103ab565b604051808573ffffffffffffffffffffffffffffffffffffffff1673ffffffffffffffffffffffffffffffffffffffff16815260200180602001848152602001838152602001828103825285818151815260200191508051906020019080838360005b838110156101a857808201518184015260208101905061018d565b50505050905090810190601f1680156101d55780820380516001836020036101000a031916815260200191505b509550505050505060405180910390f35b600060025460015401905090565b600080600a8460ff1610151561020957600080fd5b5b6000805490508160ff16101561038d578360ff1660008260ff1681548110151561023057fe5b90600052602060002090602091828204019190069054906101000a900460ff1660ff161415610380576080604051908101604052803373ffffffffffffffffffffffffffffffffffffffff1681526020018560ff16815260200184815260200142815250600460003373ffffffffffffffffffffffffffffffffffffffff1673ffffffffffffffffffffffffffffffffffffffff16815260200190815260200160002060008201518160000160006101000a81548173ffffffffffffffffffffffffffffffffffffffff021916908373ffffffffffffffffffffffffffffffffffffffff16021790555060208201518160000160146101000a81548160ff021916908360ff16021790555060408201518160010190805190602001906103579291906103b8565b5060608201518160020155905050600260008154809291906001019190505550600191506103a4565b808060010191505061020a565b600160008154809291906001019190505550600091505b5092915050565b6000606060008090919293565b828054600181600116156101000203166002900490600052602060002090601f016020900481019282601f106103f957805160ff1916838001178555610427565b82800160010185558215610427579182015b8281111561042657825182559160200191906001019061040b565b5b5090506104349190610438565b5090565b61045a91905b8082111561045657600081600090555060010161043e565b5090565b905600a165627a7a723058203fbf4e84c59e755b0fcb2accb146b6bb38f35e065c647644e3edf55ae7506e2f0029",
  "source": "pragma solidity ^0.4.22;\n\n\ncontract MultiNumberBettingV4 {\n  uint8[] array;\n  uint loserCount;\n  uint winnerCount;\n  address winner;\n  struct Winner {\n    address winnerAddress;\n    uint8 num;\n    string guess;\n    uint guessedAt;}\n  mapping(address => Winner) ListWinner;\n  constructor(uint8 number1,uint8 number2,uint8 number3) public {\n    array=[number1,number2,number3];\n  }\n  function guess(uint8 num,string nameguess )public  returns (bool)\n  {\n    require(num<10);\n    for(uint8 i;i<array.length;i++)\n    {\n      if(array[i]==num)\n      {\n        ListWinner[msg.sender]= Winner(msg.sender,num,nameguess,now);\n        winnerCount++;\n        return true;\n\n      }\n     \n    }\n      loserCount++;\n      return false;\n  }\n  function totalGuesses() public view  returns(uint){\n    return loserCount+winnerCount;\n  }\n  function getLastWinnerInfo() returns (address winnerAddress, string name, uint guess, uint guessedAt){\n    //ListWinner[winnerAddress];\n    \n  }\n\n}\n",
  "sourcePath": "C:\\Users\\pc\\Desktop\\Zakaria\\Udemy-Project\\app-udemy\\FirstDappsApplication\\contracts\\MultiNumberBettingV4.sol",
  "compiler": {
    "name": "solc",
    "version": "0.4.24+commit.e67f0147.Emscripten.clang"
  },
  "schemaVersion": "2.0.1",
  "updatedAt": "2018-10-15T11:18:09.900Z"
}