{
  "contractName": "MultiNumberBettingV5",
  "abi": [
    {
      "constant": true,
      "inputs": [],
      "name": "MIN_BET",
      "outputs": [
        {
          "name": "",
          "type": "uint256"
        }
      ],
      "payable": false,
      "stateMutability": "view",
      "type": "function"
    },
    {
      "constant": true,
      "inputs": [],
      "name": "MAX_BET",
      "outputs": [
        {
          "name": "",
          "type": "uint256"
        }
      ],
      "payable": false,
      "stateMutability": "view",
      "type": "function"
    },
    {
      "inputs": [
        {
          "name": "number1",
          "type": "uint8"
        },
        {
          "name": "number2",
          "type": "uint8"
        },
        {
          "name": "number3",
          "type": "uint8"
        }
      ],
      "payable": false,
      "stateMutability": "nonpayable",
      "type": "constructor"
    },
    {
      "constant": false,
      "inputs": [
        {
          "name": "num",
          "type": "uint8"
        },
        {
          "name": "nameguess",
          "type": "string"
        }
      ],
      "name": "guess",
      "outputs": [
        {
          "name": "",
          "type": "bool"
        }
      ],
      "payable": true,
      "stateMutability": "payable",
      "type": "function"
    },
    {
      "constant": true,
      "inputs": [],
      "name": "totalGuesses",
      "outputs": [
        {
          "name": "",
          "type": "uint256"
        }
      ],
      "payable": false,
      "stateMutability": "view",
      "type": "function"
    },
    {
      "constant": false,
      "inputs": [],
      "name": "getLastWinnerInfo",
      "outputs": [
        {
          "name": "",
          "type": "address"
        },
        {
          "name": "",
          "type": "uint8"
        },
        {
          "name": "",
          "type": "string"
        },
        {
          "name": "",
          "type": "uint256"
        },
        {
          "name": "",
          "type": "uint256"
        }
      ],
      "payable": false,
      "stateMutability": "nonpayable",
      "type": "function"
    },
    {
      "constant": false,
      "inputs": [
        {
          "name": "adr",
          "type": "address"
        }
      ],
      "name": "checkWinning",
      "outputs": [
        {
          "name": "",
          "type": "bool"
        }
      ],
      "payable": false,
      "stateMutability": "nonpayable",
      "type": "function"
    }
  ],
  "bytecode": "0x608060405234801561001057600080fd5b50604051606080610aaf8339810180604052810190808051906020019092919080519060200190929190805190602001909291905050506060604051908101604052808460ff1660ff1681526020018360ff1660ff1681526020018260ff1660ff16815250600090600361008592919061008e565b50505050610165565b82805482825590600052602060002090601f016020900481019282156101245791602002820160005b838211156100f557835183826101000a81548160ff021916908360ff16021790555092602001926001016020816000010492830192600103026100b7565b80156101225782816101000a81549060ff02191690556001016020816000010492830192600103026100f5565b505b5090506101319190610135565b5090565b61016291905b8082111561015e57600081816101000a81549060ff02191690555060010161013b565b5090565b90565b61093b806101746000396000f300608060405260043610610078576000357c0100000000000000000000000000000000000000000000000000000000900463ffffffff1680635249c2311461007d5780636540742f146100d85780637e95b523146101035780638ef282491461012e57806395583f7114610159578063ee040eb9146101da575b600080fd5b34801561008957600080fd5b506100be600480360381019080803573ffffffffffffffffffffffffffffffffffffffff1690602001909291905050506102b8565b604051808215151515815260200191505060405180910390f35b3480156100e457600080fd5b506100ed61034d565b6040518082815260200191505060405180910390f35b34801561010f57600080fd5b50610118610359565b6040518082815260200191505060405180910390f35b34801561013a57600080fd5b50610143610365565b6040518082815260200191505060405180910390f35b6101c0600480360381019080803560ff169060200190929190803590602001908201803590602001908080601f0160208091040260200160405190810160405280939291908181526020018383808284378201915050505050509192919290505050610373565b604051808215151515815260200191505060405180910390f35b3480156101e657600080fd5b506101ef610590565b604051808673ffffffffffffffffffffffffffffffffffffffff1673ffffffffffffffffffffffffffffffffffffffff1681526020018560ff1660ff16815260200180602001848152602001838152602001828103825285818151815260200191508051906020019080838360005b8381101561027957808201518184015260208101905061025e565b50505050905090810190601f1680156102a65780820380516001836020036101000a031916815260200191505b50965050505050505060405180910390f35b600080600460008473ffffffffffffffffffffffffffffffffffffffff1673ffffffffffffffffffffffffffffffffffffffff16815260200190815260200160002060000160009054906101000a900473ffffffffffffffffffffffffffffffffffffffff1673ffffffffffffffffffffffffffffffffffffffff1614156103435760009050610348565b600190505b919050565b674563918244f4000081565b670de0b6b3a764000081565b600060025460015401905090565b600080674563918244f400003410806103935750670de0b6b3a764000034115b1561039d57600080fd5b5b6000805490508160ff161015610572578360ff1660008260ff168154811015156103c457fe5b90600052602060002090602091828204019190069054906101000a900460ff1660ff1614156105655733600360006101000a81548173ffffffffffffffffffffffffffffffffffffffff021916908373ffffffffffffffffffffffffffffffffffffffff16021790555060a0604051908101604052803373ffffffffffffffffffffffffffffffffffffffff1681526020018560ff16815260200184815260200142815260200134815250600460003373ffffffffffffffffffffffffffffffffffffffff1673ffffffffffffffffffffffffffffffffffffffff16815260200190815260200160002060008201518160000160006101000a81548173ffffffffffffffffffffffffffffffffffffffff021916908373ffffffffffffffffffffffffffffffffffffffff16021790555060208201518160000160146101000a81548160ff021916908360ff160217905550604082015181600101908051906020019061053292919061086a565b50606082015181600201556080820151816003015590505060026000815480929190600101919050555060019150610589565b808060010191505061039e565b600160008154809291906001019190505550600091505b5092915050565b600080606060008060046000600360009054906101000a900473ffffffffffffffffffffffffffffffffffffffff1673ffffffffffffffffffffffffffffffffffffffff1673ffffffffffffffffffffffffffffffffffffffff16815260200190815260200160002060000160009054906101000a900473ffffffffffffffffffffffffffffffffffffffff1660046000600360009054906101000a900473ffffffffffffffffffffffffffffffffffffffff1673ffffffffffffffffffffffffffffffffffffffff1673ffffffffffffffffffffffffffffffffffffffff16815260200190815260200160002060000160149054906101000a900460ff1660046000600360009054906101000a900473ffffffffffffffffffffffffffffffffffffffff1673ffffffffffffffffffffffffffffffffffffffff1673ffffffffffffffffffffffffffffffffffffffff16815260200190815260200160002060010160046000600360009054906101000a900473ffffffffffffffffffffffffffffffffffffffff1673ffffffffffffffffffffffffffffffffffffffff1673ffffffffffffffffffffffffffffffffffffffff1681526020019081526020016000206002015460046000600360009054906101000a900473ffffffffffffffffffffffffffffffffffffffff1673ffffffffffffffffffffffffffffffffffffffff1673ffffffffffffffffffffffffffffffffffffffff16815260200190815260200160002060030154828054600181600116156101000203166002900480601f0160208091040260200160405190810160405280929190818152602001828054600181600116156101000203166002900480156108525780601f1061082757610100808354040283529160200191610852565b820191906000526020600020905b81548152906001019060200180831161083557829003601f168201915b50505050509250945094509450945094509091929394565b828054600181600116156101000203166002900490600052602060002090601f016020900481019282601f106108ab57805160ff19168380011785556108d9565b828001600101855582156108d9579182015b828111156108d85782518255916020019190600101906108bd565b5b5090506108e691906108ea565b5090565b61090c91905b808211156109085760008160009055506001016108f0565b5090565b905600a165627a7a72305820e22a6744e1ba915babe653370d6904643276e27ad8364df2aa9de37d0e689ec60029",
  "source": "pragma solidity ^0.4.22;\n import \"./MultiNumberBettingAbstractV1.sol\";\n\ncontract MultiNumberBettingV5 is MultiNumberBettingAbstractV1   {\n  uint8[] array;\n  uint loserCount;\n  uint winnerCount;\n  address winner;\n  struct Winner {\n    address winnerAddress;\n    uint8 num;\n    string guess;\n    uint guessedAt;\n    uint receivedEther;\n    }\n  mapping(address => Winner) ListWinner;\n  constructor(uint8 number1,uint8 number2,uint8 number3) public {\n    array=[number1,number2,number3];\n  }\n  function guess(uint8 num,string nameguess )public payable returns (bool)\n  {\n    if(msg.value< MIN_BET || msg.value> MAX_BET ) revert();\n    for(uint8 i;i<array.length;i++)\n    {\n      if(array[i]==num)\n      {\n        winner=msg.sender;\n        ListWinner[msg.sender]= Winner(msg.sender,num,nameguess,now,uint(msg.value));\n        winnerCount++;\n        return true;\n\n      }\n     \n    }\n      loserCount++;\n      return false;\n  }\n  function totalGuesses() public view  returns(uint){\n    return loserCount+winnerCount;\n  }\n  function getLastWinnerInfo() public  returns (address,uint8,string,uint,uint) {\n   // Winner memory wn=ListWinner[winner];\n    //return (wn.winnerAddress,wn.num,wn.guess,wn.guessedAt);   \n    return (ListWinner[winner].winnerAddress,ListWinner[winner].num,ListWinner[winner].guess,ListWinner[winner].guessedAt,ListWinner[winner].receivedEther);\n  }\n  function checkWinning(address adr) public returns(bool)\n  {\n    if (ListWinner[adr].winnerAddress == 0x0 )\n    {\n      return false;\n    }\n    else\n    return true;\n  }\n\n}\n",
  "sourcePath": "C:\\Users\\pc\\Desktop\\Zakaria\\Udemy-Project\\app-udemy\\FirstDappsApplication\\contracts\\MultiNumberBettingV5.sol",
  "compiler": {
    "name": "solc",
    "version": "0.4.24+commit.e67f0147.Emscripten.clang"
  },
  "schemaVersion": "2.0.1",
  "updatedAt": "2018-10-17T09:38:35.428Z"
}