{
  "contractName": "MultiNumberBettingV6",
  "abi": [
    {
      "constant": true,
      "inputs": [],
      "name": "MIN_BET",
      "outputs": [
        {
          "name": "",
          "type": "uint256"
        }
      ],
      "payable": false,
      "stateMutability": "view",
      "type": "function"
    },
    {
      "constant": true,
      "inputs": [],
      "name": "MAX_BET",
      "outputs": [
        {
          "name": "",
          "type": "uint256"
        }
      ],
      "payable": false,
      "stateMutability": "view",
      "type": "function"
    },
    {
      "inputs": [
        {
          "name": "number1",
          "type": "uint8"
        },
        {
          "name": "number2",
          "type": "uint8"
        },
        {
          "name": "number3",
          "type": "uint8"
        }
      ],
      "payable": false,
      "stateMutability": "nonpayable",
      "type": "constructor"
    },
    {
      "payable": true,
      "stateMutability": "payable",
      "type": "fallback"
    },
    {
      "constant": false,
      "inputs": [
        {
          "name": "num",
          "type": "uint8"
        },
        {
          "name": "nameguess",
          "type": "string"
        }
      ],
      "name": "guess",
      "outputs": [
        {
          "name": "",
          "type": "bool"
        }
      ],
      "payable": true,
      "stateMutability": "payable",
      "type": "function"
    },
    {
      "constant": true,
      "inputs": [],
      "name": "totalGuesses",
      "outputs": [
        {
          "name": "",
          "type": "uint256"
        }
      ],
      "payable": false,
      "stateMutability": "view",
      "type": "function"
    },
    {
      "constant": false,
      "inputs": [],
      "name": "getLastWinnerInfo",
      "outputs": [
        {
          "name": "adr",
          "type": "address"
        },
        {
          "name": "nm",
          "type": "uint8"
        },
        {
          "name": "gs",
          "type": "string"
        },
        {
          "name": "at",
          "type": "uint256"
        },
        {
          "name": "re",
          "type": "uint256"
        }
      ],
      "payable": false,
      "stateMutability": "nonpayable",
      "type": "function"
    },
    {
      "constant": false,
      "inputs": [
        {
          "name": "adr",
          "type": "address"
        }
      ],
      "name": "checkWinning",
      "outputs": [
        {
          "name": "",
          "type": "bool"
        }
      ],
      "payable": false,
      "stateMutability": "nonpayable",
      "type": "function"
    },
    {
      "constant": false,
      "inputs": [
        {
          "name": "amt",
          "type": "uint256"
        }
      ],
      "name": "ownerWithdraw",
      "outputs": [],
      "payable": false,
      "stateMutability": "nonpayable",
      "type": "function"
    }
  ],
  "bytecode": "0x608060405234801561001057600080fd5b50604051606080610c5c8339810180604052810190808051906020019092919080519060200190929190805190602001909291905050506060604051908101604052808460ff1660ff1681526020018360ff1660ff1681526020018260ff1660ff1681525060019060036100859291906100ce565b50336000806101000a81548173ffffffffffffffffffffffffffffffffffffffff021916908373ffffffffffffffffffffffffffffffffffffffff1602179055505050506101a5565b82805482825590600052602060002090601f016020900481019282156101645791602002820160005b8382111561013557835183826101000a81548160ff021916908360ff16021790555092602001926001016020816000010492830192600103026100f7565b80156101625782816101000a81549060ff0219169055600101602081600001049283019260010302610135565b505b5090506101719190610175565b5090565b6101a291905b8082111561019e57600081816101000a81549060ff02191690555060010161017b565b5090565b90565b610aa8806101b46000396000f300608060405260043610610083576000357c0100000000000000000000000000000000000000000000000000000000900463ffffffff16806333f707d1146100855780635249c231146100b25780636540742f1461010d5780637e95b523146101385780638ef282491461016357806395583f711461018e578063ee040eb91461020f575b005b34801561009157600080fd5b506100b0600480360381019080803590602001909291905050506102ed565b005b3480156100be57600080fd5b506100f3600480360381019080803573ffffffffffffffffffffffffffffffffffffffff1690602001909291905050506103ab565b604051808215151515815260200191505060405180910390f35b34801561011957600080fd5b50610122610440565b6040518082815260200191505060405180910390f35b34801561014457600080fd5b5061014d61044c565b6040518082815260200191505060405180910390f35b34801561016f57600080fd5b50610178610458565b6040518082815260200191505060405180910390f35b6101f5600480360381019080803560ff169060200190929190803590602001908201803590602001908080601f0160208091040260200160405190810160405280939291908181526020018383808284378201915050505050509192919290505050610466565b604051808215151515815260200191505060405180910390f35b34801561021b57600080fd5b506102246106fd565b604051808673ffffffffffffffffffffffffffffffffffffffff1673ffffffffffffffffffffffffffffffffffffffff1681526020018560ff1660ff16815260200180602001848152602001838152602001828103825285818151815260200191508051906020019080838360005b838110156102ae578082015181840152602081019050610293565b50505050905090810190601f1680156102db5780820380516001836020036101000a031916815260200191505b50965050505050505060405180910390f35b6000809054906101000a900473ffffffffffffffffffffffffffffffffffffffff1673ffffffffffffffffffffffffffffffffffffffff163373ffffffffffffffffffffffffffffffffffffffff1614151561034857600080fd5b670de0b6b3a76400006003028110151561036157600080fd5b3373ffffffffffffffffffffffffffffffffffffffff166108fc829081150290604051600060405180830381858888f193505050501580156103a7573d6000803e3d6000fd5b5050565b600080600560008473ffffffffffffffffffffffffffffffffffffffff1673ffffffffffffffffffffffffffffffffffffffff16815260200190815260200160002060000160009054906101000a900473ffffffffffffffffffffffffffffffffffffffff1673ffffffffffffffffffffffffffffffffffffffff161415610436576000905061043b565b600190505b919050565b674563918244f4000081565b670de0b6b3a764000081565b600060035460025401905090565b600080670de0b6b3a76400006003023073ffffffffffffffffffffffffffffffffffffffff163111151561049957600080fd5b674563918244f400003410806104b65750670de0b6b3a764000034115b156104c057600080fd5b5b6001805490508160ff1610156106df578360ff1660018260ff168154811015156104e757fe5b90600052602060002090602091828204019190069054906101000a900460ff1660ff1614156106d25733600460006101000a81548173ffffffffffffffffffffffffffffffffffffffff021916908373ffffffffffffffffffffffffffffffffffffffff16021790555060a0604051908101604052803373ffffffffffffffffffffffffffffffffffffffff1681526020018560ff16815260200184815260200142815260200134815250600560003373ffffffffffffffffffffffffffffffffffffffff1673ffffffffffffffffffffffffffffffffffffffff16815260200190815260200160002060008201518160000160006101000a81548173ffffffffffffffffffffffffffffffffffffffff021916908373ffffffffffffffffffffffffffffffffffffffff16021790555060208201518160000160146101000a81548160ff021916908360ff16021790555060408201518160010190805190602001906106559291906109d7565b5060608201518160020155608082015181600301559050503373ffffffffffffffffffffffffffffffffffffffff166108fc346002029081150290604051600060405180830381858888f193505050501580156106b6573d6000803e3d6000fd5b50600360008154809291906001019190505550600191506106f6565b80806001019150506104c1565b600260008154809291906001019190505550600091505b5092915050565b600080606060008060056000600460009054906101000a900473ffffffffffffffffffffffffffffffffffffffff1673ffffffffffffffffffffffffffffffffffffffff1673ffffffffffffffffffffffffffffffffffffffff16815260200190815260200160002060000160009054906101000a900473ffffffffffffffffffffffffffffffffffffffff1660056000600460009054906101000a900473ffffffffffffffffffffffffffffffffffffffff1673ffffffffffffffffffffffffffffffffffffffff1673ffffffffffffffffffffffffffffffffffffffff16815260200190815260200160002060000160149054906101000a900460ff1660056000600460009054906101000a900473ffffffffffffffffffffffffffffffffffffffff1673ffffffffffffffffffffffffffffffffffffffff1673ffffffffffffffffffffffffffffffffffffffff16815260200190815260200160002060010160056000600460009054906101000a900473ffffffffffffffffffffffffffffffffffffffff1673ffffffffffffffffffffffffffffffffffffffff1673ffffffffffffffffffffffffffffffffffffffff1681526020019081526020016000206002015460056000600460009054906101000a900473ffffffffffffffffffffffffffffffffffffffff1673ffffffffffffffffffffffffffffffffffffffff1673ffffffffffffffffffffffffffffffffffffffff16815260200190815260200160002060030154828054600181600116156101000203166002900480601f0160208091040260200160405190810160405280929190818152602001828054600181600116156101000203166002900480156109bf5780601f10610994576101008083540402835291602001916109bf565b820191906000526020600020905b8154815290600101906020018083116109a257829003601f168201915b50505050509250945094509450945094509091929394565b828054600181600116156101000203166002900490600052602060002090601f016020900481019282601f10610a1857805160ff1916838001178555610a46565b82800160010185558215610a46579182015b82811115610a45578251825591602001919060010190610a2a565b5b509050610a539190610a57565b5090565b610a7991905b80821115610a75576000816000905550600101610a5d565b5090565b905600a165627a7a7230582040ad1b5793670860145a387eacc2b0ec22b2806d8e5a1f32622d724daf9342d10029",
  "source": "pragma solidity ^0.4.22;\n import \"./MultiNumberBettingAbstractV2.sol\";\n\ncontract MultiNumberBettingV6 is MultiNumberBettingAbstractV2   {\n  address owner;\n  uint8[] array;\n  uint loserCount;\n  uint winnerCount;\n  address winner;\n  struct Winner {\n    address winnerAddress;\n    uint8 num;\n    string guess;\n    uint guessedAt;\n    uint receivedEther;\n    }\n    modifier OwnerOnly {require(msg.sender == owner); _;}\n  mapping(address => Winner) ListWinner;\n  constructor(uint8 number1,uint8 number2,uint8 number3) public {\n    array=[number1,number2,number3];\n    owner = msg.sender;\n  }\n  function guess(uint8 num,string nameguess )public payable returns (bool)\n  {\n    require(address(this).balance > 3*MAX_BET);\n\n    if(msg.value< MIN_BET || msg.value> MAX_BET ) revert();\n    for(uint8 i;i<array.length;i++)\n    {\n      if(array[i]==num)\n      {\n        winner=msg.sender;\n        ListWinner[msg.sender]= Winner(msg.sender,num,nameguess,now,uint(msg.value));\n        msg.sender.transfer(2*msg.value);\n        winnerCount++;\n        return true;\n\n      }\n     \n    }\n      loserCount++;\n      return false;\n  }\n  function totalGuesses() public view  returns(uint){\n    return loserCount+winnerCount;\n  }\n  function getLastWinnerInfo() public  returns (address adr ,uint8 nm ,string gs,uint at,uint re) {\n   // Winner memory wn=ListWinner[winner];\n    //return (wn.winnerAddress,wn.num,wn.guess,wn.guessedAt);   \n    return (ListWinner[winner].winnerAddress,ListWinner[winner].num,ListWinner[winner].guess,ListWinner[winner].guessedAt,ListWinner[winner].receivedEther);\n  }\n  function checkWinning(address adr) public returns(bool)\n  {\n    if (ListWinner[adr].winnerAddress == 0x0 )\n    {\n      return false;\n    }\n    else\n    return true;\n  }\n   function ownerWithdraw(uint amt) public OwnerOnly{\n    require(amt <  3*MAX_BET);\n    msg.sender.transfer(amt);\n   }\n   function() public payable{}\n}\n",
  "sourcePath": "C:\\Users\\pc\\Desktop\\Zakaria\\Udemy-Project\\app-udemy\\FirstDappsApplication\\contracts\\MultiNumberBettingV6.sol",
  "compiler": {
    "name": "solc",
    "version": "0.4.24+commit.e67f0147.Emscripten.clang"
  },
  "schemaVersion": "2.0.1",
  "updatedAt": "2018-10-17T11:10:20.837Z"
}