{
  "contractName": "MultiNumberBettingV1",
  "abi": [
    {
      "inputs": [
        {
          "name": "number1",
          "type": "uint8"
        },
        {
          "name": "number2",
          "type": "uint8"
        },
        {
          "name": "number3",
          "type": "uint8"
        }
      ],
      "payable": false,
      "stateMutability": "nonpayable",
      "type": "constructor"
    },
    {
      "constant": false,
      "inputs": [
        {
          "name": "num",
          "type": "uint8"
        }
      ],
      "name": "guess",
      "outputs": [
        {
          "name": "",
          "type": "bool"
        }
      ],
      "payable": false,
      "stateMutability": "nonpayable",
      "type": "function"
    },
    {
      "constant": true,
      "inputs": [],
      "name": "totalGuesses",
      "outputs": [
        {
          "name": "",
          "type": "uint256"
        }
      ],
      "payable": false,
      "stateMutability": "view",
      "type": "function"
    }
  ],
  "bytecode": "0x608060405234801561001057600080fd5b5060405160608061030a8339810180604052810190808051906020019092919080519060200190929190805190602001909291905050506060604051908101604052808460ff1660ff1681526020018360ff1660ff1681526020018260ff1660ff16815250600090600361008592919061008e565b50505050610165565b82805482825590600052602060002090601f016020900481019282156101245791602002820160005b838211156100f557835183826101000a81548160ff021916908360ff16021790555092602001926001016020816000010492830192600103026100b7565b80156101225782816101000a81549060ff02191690556001016020816000010492830192600103026100f5565b505b5090506101319190610135565b5090565b61016291905b8082111561015e57600081816101000a81549060ff02191690555060010161013b565b5090565b90565b610196806101746000396000f30060806040526004361061004c576000357c0100000000000000000000000000000000000000000000000000000000900463ffffffff1680634ba4c16b146100515780638ef2824914610099575b600080fd5b34801561005d57600080fd5b5061007f600480360381019080803560ff1690602001909291905050506100c4565b604051808215151515815260200191505060405180910390f35b3480156100a557600080fd5b506100ae61015c565b6040518082815260200191505060405180910390f35b6000805b6000805490508160ff16101561013f578260ff1660008260ff168154811015156100ee57fe5b90600052602060002090602091828204019190069054906101000a900460ff1660ff1614156101325760026000815480929190600101919050555060019150610156565b80806001019150506100c8565b600160008154809291906001019190505550600091505b50919050565b6000600254600154019050905600a165627a7a72305820e417f6e966f11ad8d069d4d9901e1e9dc9f3bdb0228da1153092c43f5c6a28340029",
  "source": "pragma solidity ^0.4.22;\n\n\ncontract MultiNumberBettingV1 {\n  uint8[] array;\n  uint loserCount;\n  uint winnerCount;\n  constructor(uint8 number1,uint8 number2,uint8 number3) public {\n    /*array.push(number1);\n    array.push(number2);\n    array.push(number3);*/\n    array=[number1,number2,number3];\n  }\n  function guess(uint8 num )public  returns (bool)\n  {\n    for(uint8 i;i<array.length;i++)\n    {\n      if(array[i]==num)\n      {\n        winnerCount++;\n        return true;\n\n      }\n     \n    }\n      loserCount++;\n      return false;\n  }\n  function totalGuesses() public view  returns(uint){\n    return loserCount+winnerCount;\n  }\n}\n",
  "sourcePath": "C:\\Users\\pc\\Desktop\\Zakaria\\Udemy-Project\\app-udemy\\FirstDappsApplication\\contracts\\MultiNumberBettingV1.sol",
  "compiler": {
    "name": "solc",
    "version": "0.4.24+commit.e67f0147.Emscripten.clang"
  },
  "schemaVersion": "2.0.1",
  "updatedAt": "2018-10-12T03:52:47.764Z"
}