{
  "contractName": "MultiNumberBettingV4",
  "abi": [
    {
      "inputs": [
        {
          "name": "number1",
          "type": "uint8"
        },
        {
          "name": "number2",
          "type": "uint8"
        },
        {
          "name": "number3",
          "type": "uint8"
        }
      ],
      "payable": false,
      "stateMutability": "nonpayable",
      "type": "constructor"
    },
    {
      "constant": false,
      "inputs": [
        {
          "name": "num",
          "type": "uint8"
        },
        {
          "name": "nameguess",
          "type": "string"
        }
      ],
      "name": "guess",
      "outputs": [
        {
          "name": "",
          "type": "bool"
        }
      ],
      "payable": false,
      "stateMutability": "nonpayable",
      "type": "function"
    },
    {
      "constant": true,
      "inputs": [],
      "name": "totalGuesses",
      "outputs": [
        {
          "name": "",
          "type": "uint256"
        }
      ],
      "payable": false,
      "stateMutability": "view",
      "type": "function"
    },
    {
      "constant": false,
      "inputs": [],
      "name": "getLastWinnerInfo",
      "outputs": [
        {
          "name": "winnerAddress",
          "type": "address"
        },
        {
          "name": "numeroGuessed",
          "type": "uint8"
        },
        {
          "name": "nameguess",
          "type": "string"
        },
        {
          "name": "guessedAt",
          "type": "uint256"
        }
      ],
      "payable": false,
      "stateMutability": "nonpayable",
      "type": "function"
    },
    {
      "constant": false,
      "inputs": [
        {
          "name": "adr",
          "type": "address"
        }
      ],
      "name": "checkWinning",
      "outputs": [
        {
          "name": "",
          "type": "bool"
        }
      ],
      "payable": false,
      "stateMutability": "nonpayable",
      "type": "function"
    }
  ],
  "bytecode": "0x608060405234801561001057600080fd5b506040516060806109918339810180604052810190808051906020019092919080519060200190929190805190602001909291905050506060604051908101604052808460ff1660ff1681526020018360ff1660ff1681526020018260ff1660ff16815250600090600361008592919061008e565b50505050610165565b82805482825590600052602060002090601f016020900481019282156101245791602002820160005b838211156100f557835183826101000a81548160ff021916908360ff16021790555092602001926001016020816000010492830192600103026100b7565b80156101225782816101000a81549060ff02191690556001016020816000010492830192600103026100f5565b505b5090506101319190610135565b5090565b61016291905b8082111561015e57600081816101000a81549060ff02191690555060010161013b565b5090565b90565b61081d806101746000396000f300608060405260043610610062576000357c0100000000000000000000000000000000000000000000000000000000900463ffffffff1680635249c231146100675780638ef28249146100c257806395583f71146100ed578063ee040eb91461017b575b600080fd5b34801561007357600080fd5b506100a8600480360381019080803573ffffffffffffffffffffffffffffffffffffffff169060200190929190505050610252565b604051808215151515815260200191505060405180910390f35b3480156100ce57600080fd5b506100d76102e7565b6040518082815260200191505060405180910390f35b3480156100f957600080fd5b50610161600480360381019080803560ff169060200190929190803590602001908201803590602001908080601f01602080910402602001604051908101604052809392919081815260200183838082843782019150505050505091929192905050506102f5565b604051808215151515815260200191505060405180910390f35b34801561018757600080fd5b506101906104db565b604051808573ffffffffffffffffffffffffffffffffffffffff1673ffffffffffffffffffffffffffffffffffffffff1681526020018460ff1660ff16815260200180602001838152602001828103825284818151815260200191508051906020019080838360005b838110156102145780820151818401526020810190506101f9565b50505050905090810190601f1680156102415780820380516001836020036101000a031916815260200191505b509550505050505060405180910390f35b600080600460008473ffffffffffffffffffffffffffffffffffffffff1673ffffffffffffffffffffffffffffffffffffffff16815260200190815260200160002060000160009054906101000a900473ffffffffffffffffffffffffffffffffffffffff1673ffffffffffffffffffffffffffffffffffffffff1614156102dd57600090506102e2565b600190505b919050565b600060025460015401905090565b6000805b6000805490508160ff1610156104bd578360ff1660008260ff1681548110151561031f57fe5b90600052602060002090602091828204019190069054906101000a900460ff1660ff1614156104b05733600360006101000a81548173ffffffffffffffffffffffffffffffffffffffff021916908373ffffffffffffffffffffffffffffffffffffffff1602179055506080604051908101604052803373ffffffffffffffffffffffffffffffffffffffff1681526020018560ff16815260200184815260200142815250600460003373ffffffffffffffffffffffffffffffffffffffff1673ffffffffffffffffffffffffffffffffffffffff16815260200190815260200160002060008201518160000160006101000a81548173ffffffffffffffffffffffffffffffffffffffff021916908373ffffffffffffffffffffffffffffffffffffffff16021790555060208201518160000160146101000a81548160ff021916908360ff160217905550604082015181600101908051906020019061048792919061074c565b5060608201518160020155905050600260008154809291906001019190505550600191506104d4565b80806001019150506102f9565b600160008154809291906001019190505550600091505b5092915050565b6000806060600060046000600360009054906101000a900473ffffffffffffffffffffffffffffffffffffffff1673ffffffffffffffffffffffffffffffffffffffff1673ffffffffffffffffffffffffffffffffffffffff16815260200190815260200160002060000160009054906101000a900473ffffffffffffffffffffffffffffffffffffffff1660046000600360009054906101000a900473ffffffffffffffffffffffffffffffffffffffff1673ffffffffffffffffffffffffffffffffffffffff1673ffffffffffffffffffffffffffffffffffffffff16815260200190815260200160002060000160149054906101000a900460ff1660046000600360009054906101000a900473ffffffffffffffffffffffffffffffffffffffff1673ffffffffffffffffffffffffffffffffffffffff1673ffffffffffffffffffffffffffffffffffffffff16815260200190815260200160002060010160046000600360009054906101000a900473ffffffffffffffffffffffffffffffffffffffff1673ffffffffffffffffffffffffffffffffffffffff1673ffffffffffffffffffffffffffffffffffffffff16815260200190815260200160002060020154818054600181600116156101000203166002900480601f0160208091040260200160405190810160405280929190818152602001828054600181600116156101000203166002900480156107375780601f1061070c57610100808354040283529160200191610737565b820191906000526020600020905b81548152906001019060200180831161071a57829003601f168201915b50505050509150935093509350935090919293565b828054600181600116156101000203166002900490600052602060002090601f016020900481019282601f1061078d57805160ff19168380011785556107bb565b828001600101855582156107bb579182015b828111156107ba57825182559160200191906001019061079f565b5b5090506107c891906107cc565b5090565b6107ee91905b808211156107ea5760008160009055506001016107d2565b5090565b905600a165627a7a7230582082c1c5c80cc759922fd0bff0e1eb1e37f2594a2f347b3a1b7a1eeba3a921b6030029",
  "source": "pragma solidity ^0.4.22;\n\n\ncontract MultiNumberBettingV4 {\n  uint8[] array;\n  uint loserCount;\n  uint winnerCount;\n  address winner;\n  struct Winner {\n    address winnerAddress;\n    uint8 num;\n    string guess;\n    uint guessedAt;}\n  mapping(address => Winner) ListWinner;\n  constructor(uint8 number1,uint8 number2,uint8 number3) public {\n    array=[number1,number2,number3];\n  }\n  function guess(uint8 num,string nameguess )public  returns (bool)\n  {\n    for(uint8 i;i<array.length;i++)\n    {\n      if(array[i]==num)\n      {\n        winner=msg.sender;\n        ListWinner[msg.sender]= Winner(msg.sender,num,nameguess,now);\n        winnerCount++;\n        return true;\n\n      }\n     \n    }\n      loserCount++;\n      return false;\n  }\n  function totalGuesses() public view  returns(uint){\n    return loserCount+winnerCount;\n  }\n  function getLastWinnerInfo() public  returns (address winnerAddress, uint8 numeroGuessed, string nameguess, uint guessedAt) {\n   // Winner memory wn=ListWinner[winner];\n    //return (wn.winnerAddress,wn.num,wn.guess,wn.guessedAt);   \n    return (ListWinner[winner].winnerAddress,ListWinner[winner].num,ListWinner[winner].guess,ListWinner[winner].guessedAt);\n  }\n  function checkWinning(address adr) public returns(bool)\n  {\n    if (ListWinner[adr].winnerAddress == 0x0 )\n    {\n      return false;\n    }\n    else\n    return true;\n  }\n\n}\n",
  "sourcePath": "C:\\Users\\pc\\Desktop\\Zakaria\\Udemy-Project\\app-udemy\\FirstDappsApplication\\contracts\\MultiNumberBettingV4.sol",
  "compiler": {
    "name": "solc",
    "version": "0.4.24+commit.e67f0147.Emscripten.clang"
  },
  "schemaVersion": "2.0.1",
  "updatedAt": "2018-10-16T04:26:16.490Z"
}