{
  "contractName": "MultiNumberBettingV4",
  "abi": [
    {
      "inputs": [
        {
          "name": "number1",
          "type": "uint8"
        },
        {
          "name": "number2",
          "type": "uint8"
        },
        {
          "name": "number3",
          "type": "uint8"
        }
      ],
      "payable": false,
      "stateMutability": "nonpayable",
      "type": "constructor"
    },
    {
      "constant": false,
      "inputs": [
        {
          "name": "num",
          "type": "uint8"
        },
        {
          "name": "nameguess",
          "type": "string"
        }
      ],
      "name": "guess",
      "outputs": [
        {
          "name": "",
          "type": "bool"
        }
      ],
      "payable": false,
      "stateMutability": "nonpayable",
      "type": "function"
    },
    {
      "constant": true,
      "inputs": [],
      "name": "totalGuesses",
      "outputs": [
        {
          "name": "",
          "type": "uint256"
        }
      ],
      "payable": false,
      "stateMutability": "view",
      "type": "function"
    },
    {
      "constant": true,
      "inputs": [],
      "name": "getLastWinner",
      "outputs": [
        {
          "name": "",
          "type": "string"
        }
      ],
      "payable": false,
      "stateMutability": "view",
      "type": "function"
    },
    {
      "constant": false,
      "inputs": [],
      "name": "daysSinceLastWinning",
      "outputs": [
        {
          "name": "",
          "type": "uint256"
        }
      ],
      "payable": false,
      "stateMutability": "nonpayable",
      "type": "function"
    },
    {
      "constant": false,
      "inputs": [],
      "name": "hoursSinceLastWinning",
      "outputs": [
        {
          "name": "",
          "type": "uint256"
        }
      ],
      "payable": false,
      "stateMutability": "nonpayable",
      "type": "function"
    },
    {
      "constant": false,
      "inputs": [],
      "name": "minuteSinceLastWinning",
      "outputs": [
        {
          "name": "",
          "type": "uint256"
        }
      ],
      "payable": false,
      "stateMutability": "nonpayable",
      "type": "function"
    },
    {
      "constant": false,
      "inputs": [],
      "name": "Ethdays",
      "outputs": [
        {
          "name": "",
          "type": "uint256"
        }
      ],
      "payable": false,
      "stateMutability": "nonpayable",
      "type": "function"
    }
  ],
  "bytecode": "0x608060405234801561001057600080fd5b506040516060806108298339810180604052810190808051906020019092919080519060200190929190805190602001909291905050506060604051908101604052808460ff1660ff1681526020018360ff1660ff1681526020018260ff1660ff16815250600090600361008592919061008e565b50505050610165565b82805482825590600052602060002090601f016020900481019282156101245791602002820160005b838211156100f557835183826101000a81548160ff021916908360ff16021790555092602001926001016020816000010492830192600103026100b7565b80156101225782816101000a81549060ff02191690556001016020816000010492830192600103026100f5565b505b5090506101319190610135565b5090565b61016291905b8082111561015e57600081816101000a81549060ff02191690555060010161013b565b5090565b90565b6106b5806101746000396000f300608060405260043610610083576000357c0100000000000000000000000000000000000000000000000000000000900463ffffffff16806315153cdc146100885780636d48a043146100b35780638ef28249146100de57806395583f7114610109578063bd71603b14610197578063dbd01193146101c2578063f88649a1146101ed575b600080fd5b34801561009457600080fd5b5061009d61027d565b6040518082815260200191505060405180910390f35b3480156100bf57600080fd5b506100c861028d565b6040518082815260200191505060405180910390f35b3480156100ea57600080fd5b506100f361029e565b6040518082815260200191505060405180910390f35b34801561011557600080fd5b5061017d600480360381019080803560ff169060200190929190803590602001908201803590602001908080601f01602080910402602001604051908101604052809392919081815260200183838082843782019150505050505091929192905050506102ac565b604051808215151515815260200191505060405180910390f35b3480156101a357600080fd5b506101ac6103b6565b6040518082815260200191505060405180910390f35b3480156101ce57600080fd5b506101d76103e6565b6040518082815260200191505060405180910390f35b3480156101f957600080fd5b506102026103f5565b6040518080602001828103825283818151815260200191508051906020019080838360005b83811015610242578082015181840152602081019050610227565b50505050905090810190601f16801561026f5780820380516001836020036101000a031916815260200191505b509250505060405180910390f35b6000610e10600454420302905090565b600062015180600454024203905090565b600060025460015401905090565b600080600a8460ff161015156102c157600080fd5b5b6000805490508160ff161015610398578360ff1660008260ff168154811015156102e857fe5b90600052602060002090602091828204019190069054906101000a900460ff1660ff16141561038b5760026000815480929190600101919050555082600390805190602001906103399291906105e4565b504260048190555033600560006101000a81548173ffffffffffffffffffffffffffffffffffffffff021916908373ffffffffffffffffffffffffffffffffffffffff160217905550600191506103af565b80806001019150506102c2565b600160008154809291906001019190505550600091505b5092915050565b6000804290506018603c80838115156103cb57fe5b048115156103d557fe5b048115156103df57fe5b0491505090565b6000603c600454024203905090565b606080606080600060038054600181600116156101000203166002900480601f0160208091040260200160405190810160405280929190818152602001828054600181600116156101000203166002900480156104935780601f1061046857610100808354040283529160200191610493565b820191906000526020600020905b81548152906001019060200180831161047657829003601f168201915b505050505093506000845114156104e1576040805190810160405280600381526020017f2a2a2a000000000000000000000000000000000000000000000000000000000081525094506105dd565b60036040519080825280601f01601f1916602001820160405280156105155781602001602082028038833980820191505090505b509250829150600090505b6003811080156105305750835181105b156105d957838181518110151561054357fe5b9060200101517f010000000000000000000000000000000000000000000000000000000000000090047f010000000000000000000000000000000000000000000000000000000000000002828281518110151561059c57fe5b9060200101907effffffffffffffffffffffffffffffffffffffffffffffffffffffffffffff1916908160001a9053508080600101915050610520565b8194505b5050505090565b828054600181600116156101000203166002900490600052602060002090601f016020900481019282601f1061062557805160ff1916838001178555610653565b82800160010185558215610653579182015b82811115610652578251825591602001919060010190610637565b5b5090506106609190610664565b5090565b61068691905b8082111561068257600081600090555060010161066a565b5090565b905600a165627a7a7230582067da32e63529e57e40d4b7408b3ce73db57c1cd3f57dbc4fbfd349c2e2aee3ba0029",
  "source": "pragma solidity ^0.4.22;\n\n\ncontract MultiNumberBettingV4 {\n  uint8[] array;\n  uint loserCount;\n  uint winnerCount;\n  string lastWinnerName;\n  uint lastWinnerAt;\n  address winner;\n  struct Winner {\n    address winnerAddress;\n    string name;\n    string guess;\n    uint guessedAt;}\n  mapping(address => Winner) ListWinner;\n  constructor(uint8 number1,uint8 number2,uint8 number3) public {\n    array=[number1,number2,number3];\n  }\n  function guess(uint8 num,string nameguess )public  returns (bool)\n  {\n    require(num<10);\n    for(uint8 i;i<array.length;i++)\n    {\n      if(array[i]==num)\n      {\n        winnerCount++;\n        lastWinnerName=nameguess;\n        lastWinnerAt=now;\n        winner=msg.sender;\n        return true;\n\n      }\n     \n    }\n      loserCount++;\n      return false;\n  }\n  function totalGuesses() public view  returns(uint){\n    return loserCount+winnerCount;\n  }\n  function getLastWinner() public view returns(string){\n    bytes  memory nameBytes=bytes(lastWinnerName);\n    if(nameBytes.length ==0){\n    return \"***\";\n    }\n    else{\n    string memory s=new string(3);\n    bytes memory bytess=bytes(s);\n\n    for(uint i=0;(i<3) && (i<nameBytes.length);i++)\n    {\n         bytess[i]=nameBytes[i];\n    }\n    return string(bytess);\n    }\n    \n  }\n  function daysSinceLastWinning() returns (uint){\n   return (now- lastWinnerAt*1 days);\n  }\n  function hoursSinceLastWinning()returns (uint){\n   return ((now- lastWinnerAt)*1 hours);\n    \n  }\n  function minuteSinceLastWinning()returns (uint){\n   return (now- lastWinnerAt*1 minutes);\n    \n  }\n  function Ethdays()returns (uint){\n    uint time=now;\n   return (time/60/60/24);\n    \n  }\n}\n",
  "sourcePath": "C:\\Users\\pc\\Desktop\\Zakaria\\Udemy-Project\\app-udemy\\FirstDappsApplication\\contracts\\MultiNumberBettingV4.sol",
  "compiler": {
    "name": "solc",
    "version": "0.4.24+commit.e67f0147.Emscripten.clang"
  },
  "schemaVersion": "2.0.1",
  "updatedAt": "2018-10-14T20:26:39.585Z"
}