{
  "contractName": "MultiNumberBettingV2",
  "abi": [
    {
      "inputs": [
        {
          "name": "number1",
          "type": "uint8"
        },
        {
          "name": "number2",
          "type": "uint8"
        },
        {
          "name": "number3",
          "type": "uint8"
        }
      ],
      "payable": false,
      "stateMutability": "nonpayable",
      "type": "constructor"
    },
    {
      "constant": false,
      "inputs": [
        {
          "name": "num",
          "type": "uint8"
        },
        {
          "name": "nameguess",
          "type": "string"
        }
      ],
      "name": "guess",
      "outputs": [
        {
          "name": "",
          "type": "bool"
        }
      ],
      "payable": false,
      "stateMutability": "nonpayable",
      "type": "function"
    },
    {
      "constant": true,
      "inputs": [],
      "name": "totalGuesses",
      "outputs": [
        {
          "name": "",
          "type": "uint256"
        }
      ],
      "payable": false,
      "stateMutability": "view",
      "type": "function"
    },
    {
      "constant": true,
      "inputs": [],
      "name": "getLastWinner",
      "outputs": [
        {
          "name": "",
          "type": "string"
        }
      ],
      "payable": false,
      "stateMutability": "view",
      "type": "function"
    }
  ],
  "bytecode": "0x608060405234801561001057600080fd5b506040516060806106978339810180604052810190808051906020019092919080519060200190929190805190602001909291905050506060604051908101604052808460ff1660ff1681526020018360ff1660ff1681526020018260ff1660ff16815250600090600361008592919061008e565b50505050610165565b82805482825590600052602060002090601f016020900481019282156101245791602002820160005b838211156100f557835183826101000a81548160ff021916908360ff16021790555092602001926001016020816000010492830192600103026100b7565b80156101225782816101000a81549060ff02191690556001016020816000010492830192600103026100f5565b505b5090506101319190610135565b5090565b61016291905b8082111561015e57600081816101000a81549060ff02191690555060010161013b565b5090565b90565b610523806101746000396000f300608060405260043610610057576000357c0100000000000000000000000000000000000000000000000000000000900463ffffffff1680638ef282491461005c57806395583f7114610087578063f88649a114610115575b600080fd5b34801561006857600080fd5b506100716101a5565b6040518082815260200191505060405180910390f35b34801561009357600080fd5b506100fb600480360381019080803560ff169060200190929190803590602001908201803590602001908080601f01602080910402602001604051908101604052809392919081815260200183838082843782019150505050505091929192905050506101b3565b604051808215151515815260200191505060405180910390f35b34801561012157600080fd5b5061012a610263565b6040518080602001828103825283818151815260200191508051906020019080838360005b8381101561016a57808201518184015260208101905061014f565b50505050905090810190601f1680156101975780820380516001836020036101000a031916815260200191505b509250505060405180910390f35b600060025460015401905090565b6000805b6000805490508160ff161015610245578360ff1660008260ff168154811015156101dd57fe5b90600052602060002090602091828204019190069054906101000a900460ff1660ff16141561023857600260008154809291906001019190505550826003908051906020019061022e929190610452565b506001915061025c565b80806001019150506101b7565b600160008154809291906001019190505550600091505b5092915050565b606080606080600060038054600181600116156101000203166002900480601f0160208091040260200160405190810160405280929190818152602001828054600181600116156101000203166002900480156103015780601f106102d657610100808354040283529160200191610301565b820191906000526020600020905b8154815290600101906020018083116102e457829003601f168201915b5050505050935060008451141561034f576040805190810160405280600381526020017f2a2a2a0000000000000000000000000000000000000000000000000000000000815250945061044b565b60036040519080825280601f01601f1916602001820160405280156103835781602001602082028038833980820191505090505b509250829150600090505b60038110801561039e5750835181105b156104475783818151811015156103b157fe5b9060200101517f010000000000000000000000000000000000000000000000000000000000000090047f010000000000000000000000000000000000000000000000000000000000000002828281518110151561040a57fe5b9060200101907effffffffffffffffffffffffffffffffffffffffffffffffffffffffffffff1916908160001a905350808060010191505061038e565b8194505b5050505090565b828054600181600116156101000203166002900490600052602060002090601f016020900481019282601f1061049357805160ff19168380011785556104c1565b828001600101855582156104c1579182015b828111156104c05782518255916020019190600101906104a5565b5b5090506104ce91906104d2565b5090565b6104f491905b808211156104f05760008160009055506001016104d8565b5090565b905600a165627a7a72305820020760515b066c95195ee3391d18ae7de854ba35d2bb4fe9a7b72f183bfc8d770029",
  "source": "pragma solidity ^0.4.22;\n\n\ncontract MultiNumberBettingV2 {\n  uint8[] array;\n  uint loserCount;\n  uint winnerCount;\n  string lastWinnerName;\n  constructor(uint8 number1,uint8 number2,uint8 number3) public {\n    array=[number1,number2,number3];\n  }\n  function guess(uint8 num,string nameguess )public  returns (bool)\n  {\n    for(uint8 i;i<array.length;i++)\n    {\n      if(array[i]==num)\n      {\n        winnerCount++;\n        lastWinnerName=nameguess;\n        return true;\n\n      }\n     \n    }\n      loserCount++;\n      return false;\n  }\n  function totalGuesses() public view  returns(uint){\n    return loserCount+winnerCount;\n  }\n  function getLastWinner() public view returns(string){\n    bytes  memory nameBytes=bytes(lastWinnerName);\n    if(nameBytes.length ==0){\n    return \"***\";\n    }\n    else{\n    string memory s=new string(3);\n    bytes memory bytess=bytes(s);\n\n    for(uint i=0;(i<3) && (i<nameBytes.length);i++)\n    {\n         bytess[i]=nameBytes[i];\n    }\n    return string(bytess);\n    }\n    \n  }\n}\n",
  "sourcePath": "C:\\Users\\pc\\Desktop\\Zakaria\\Udemy-Project\\app-udemy\\FirstDappsApplication\\contracts\\MultiNumberBettingV2.sol",
  "compiler": {
    "name": "solc",
    "version": "0.4.24+commit.e67f0147.Emscripten.clang"
  },
  "schemaVersion": "2.0.1",
  "updatedAt": "2018-10-15T14:19:10.168Z"
}